:020000040800F2
:1000000000000120D5580008B1570008B357000878
:10001000B5570008B7570008B9570008000000009E
:10002000000000000000000000000000BB570008B6
:10003000BD57000800000000BF570008C157000866
:1000400025590008C55700082559000825590008FA
:100050002559000825590008255900082559000888
:100060002559000825590008255900082559000878
:100070002559000825590008255900082559000868
:1000800025590008255900082559000800000000DE
:1000900000000000000000000000000025590008DA
:1000A0002559000825590008255900082559000838
:1000B000E15700082559000825590008255900086E
:1000C0002559000825590008255900082559000818
:1000D000255900082559000825590008000000008E
:1000E000255900082559000825590008000000007E
:1000F000000000000000000000000000255900087A
:10010000000000002559000825590008255900085D
:1001100000000000000000000000000000000000DF
:10012000F5570008255900082559000825590008E9
:100130002559000800000000000000000000000039
:100140000000000000000000000000002559000829
:100150002559000825590008255900082559000887
:100160002559000825590008000000000000000083
:10017000000000000000000000000000000000007F
:1001800000000000255900080000000000000000E9
:0401900025590008E5
:1001A00010B5054C237833B9044B13B10448AFF3B1
:1001B00000800123237010BD180300200000000000
:1001C0001094000808B5034B1BB103490348AFF373
:1001D000008008BD000000001C03002010940008EF
:1001E000034613F8012B002AFBD1181A0138704777
:1001F00001F0FF01102A2BDB10F0070F08D010F8D8
:10020000013B013A8B422DD010F0070F42B3F6D1DB
:10021000F0B441EA012141EA014122F007047FF0F4
:1002200000070023F0E80256083C85EA010586EA4B
:10023000010685FA47F5A3FA87F586FA47F6A5FA87
:1002400087F68EB9EED1F0BC01F0FF0102F0070293
:1002500032B110F8013B013A83EA010313B1F8D13E
:100260000020704701387047002D06BF354603381F
:10027000073815F0010F07D1013015F4807F02BF58
:10028000013015F4C03F0130F0BC0138704700BFA9
:1002900081F0004102E000BF83F0004330B54FEA37
:1002A00041044FEA430594EA050F08BF90EA020FA4
:1002B0001FBF54EA000C55EA020C7FEA645C7FEA37
:1002C000655C00F0E2804FEA5454D4EB5555B8BF5A
:1002D0006D420CDD2C4480EA020281EA030382EACB
:1002E000000083EA010180EA020281EA0303362D5D
:1002F00088BF30BD11F0004F4FEA01314FF4801C30
:100300004CEA113102D0404261EB410113F0004F41
:100310004FEA03334CEA133302D0524263EB4303F8
:1003200094EA050F00F0A780A4F10104D5F1200E96
:100330000DDB02FA0EFC22FA05F2801841F10001F1
:1003400003FA0EF2801843FA05F359410EE0A5F1C5
:1003500020050EF1200E012A03FA0EFC28BF4CF0F6
:10036000020C43FA05F3C01851EBE37101F00045AC
:1003700007D54FF0000EDCF1000C7EEB00006EEBB9
:100380000101B1F5801F1BD3B1F5001F0CD3490843
:100390005FEA30004FEA3C0C04F101044FEA44529A
:1003A00012F5800F80F09A80BCF1004F08BF5FEA21
:1003B000500C50F1000041EB045141EA050130BD01
:1003C0005FEA4C0C404141EB0101013C28BFB1F513
:1003D000801FE9D291F0000F04BF01460020B1FA5E
:1003E00081F308BF2033A3F10B03B3F120020CDA31
:1003F0000C3208DD02F1140CC2F10C0201FA0CF00F
:1004000021FA02F10CE002F11402D8BFC2F1200C73
:1004100001FA02F120FA0CFCDCBF41EA0C01904029
:10042000E41AA2BF01EB0451294330BD6FEA040472
:100430001F3C1CDA0C340EDC04F11404C4F120025D
:1004400020FA04F001FA02F340EA030021FA04F36F
:1004500045EA030130BDC4F10C04C4F1200220FAC6
:1004600002F001FA04F340EA0300294630BD21FA04
:1004700004F0294630BD94F0000F83F4801306BFCA
:1004800081F480110134013D4EE77FEA645C18BFBE
:100490007FEA655C29D094EA050F08BF90EA020F55
:1004A00005D054EA000C04BF1946104630BD91EA4D
:1004B000030F1EBF0021002030BD5FEA545C05D150
:1004C0004000494128BF41F0004130BD14F580048F
:1004D0003CBF01F5801130BD01F0004545F0FE4103
:1004E00041F470014FF0000030BD7FEA645C1ABF38
:1004F000194610467FEA655C1CBF0B46024650EA6F
:10050000013406BF52EA033591EA030F41F400219A
:1005100030BD00BF90F0000F04BF0021704730B520
:100520004FF4806404F132044FF000054FF00001F5
:1005300050E700BF90F0000F04BF0021704730B5B6
:100540004FF4806404F1320410F0004548BF40428B
:100550004FF000013EE700BF42004FEAE2014FEAE0
:1005600031014FEA02701FBF12F07F4393F07F4FBB
:1005700081F06051704732F07F4208BF704793F0BE
:100580007F4F04BF41F40021704730B54FF46074D1
:1005900001F0004521F000411CE700BF50EA0102D4
:1005A00008BF704730B54FF000050AE050EA01027D
:1005B00008BF704730B511F0004502D5404261EBED
:1005C00041014FF4806404F132045FEA915C3FF42E
:1005D000D8AE4FF003025FEADC0C18BF03325FEACB
:1005E000DC0C18BF033202EBDC02C2F1200300FA7C
:1005F00003FC20FA02F001FA03FE40EA0E0021FAA1
:1006000002F11444BDE600BF70B54FF0FF0C4CF48E
:10061000E06C1CEA11541DBF1CEA135594EA0C0F40
:1006200095EA0C0F00F0DEF82C4481EA030621EA7B
:100630004C5123EA4C5350EA013518BF52EA0335B6
:1006400041F4801143F4801338D0A0FB02CE4FF068
:100650000005E1FB02E506F00042E0FB03E54FF098
:100660000006E1FB03569CF0000F18BF4EF0010E90
:10067000A4F1FF04B6F5007F64F5407404D25FEA8C
:100680004E0E6D4146EB060642EAC62141EA55513F
:100690004FEAC52040EA5E504FEACE2EB4F1FD0C81
:1006A00088BFBCF5E06F1ED8BEF1004F08BF5FEAFF
:1006B000500E50F1000041EB045170BD06F00046B1
:1006C00046EA010140EA020081EA0301B4EB5C045E
:1006D000C2BFD4EB0C0541EA045170BD41F4801156
:1006E0004FF0000E013C00F3AB8014F1360FDEBF7B
:1006F000002001F0004170BDC4F10004203C35DA57
:100700000C341BDC04F11404C4F1200500FA05F3D9
:1007100020FA04F001FA05F240EA020001F000427A
:1007200021F0004110EBD37021FA04F642EB0601F0
:100730005EEA430E08BF20EAD37070BDC4F10C041A
:10074000C4F1200500FA04F320FA05F001FA04F2DE
:1007500040EA020001F0004110EBD37041F10001CA
:100760005EEA430E08BF20EAD37070BDC4F12005D5
:1007700000FA05F24EEA020E20FA04F301FA05F23D
:1007800043EA020321FA04F001F0004121FA04F2E5
:1007900020EA020000EBD3705EEA430E08BF20EAB5
:1007A000D37070BD94F0000F0FD101F000464000EF
:1007B00041EB010111F4801F08BF013CF7D041EA71
:1007C000060195F0000F18BF704703F00046520075
:1007D00043EB030313F4801F08BF013DF7D043EA46
:1007E0000603704794EA0C0F0CEA135518BF95EAFC
:1007F0000C0F0CD050EA410618BF52EA4306D1D183
:1008000081EA030101F000414FF0000070BD50EAA1
:10081000410606BF1046194652EA430619D094EA2B
:100820000C0F02D150EA013613D195EA0C0F05D115
:1008300052EA03361CBF104619460AD181EA030169
:1008400001F0004141F0FE4141F470014FF0000021
:1008500070BD41F0FE4141F4780170BD70B54FF0BC
:10086000FF0C4CF4E06C1CEA11541DBF1CEA13553C
:1008700094EA0C0F95EA0C0F00F0A7F8A4EB05041E
:1008800081EA030E52EA03354FEA013100F0888015
:100890004FEA03334FF0805545EA131343EA1263DE
:1008A0004FEA022245EA111545EA10654FEA002693
:1008B0000EF000419D4208BF964244F1FD0404F54C
:1008C000407402D25B084FEA3202B61A65EB0305A8
:1008D0005B084FEA32024FF480104FF4002CB6EB65
:1008E000020E75EB030E22BFB61A754640EA0C00E5
:1008F0005B084FEA3202B6EB020E75EB030E22BF25
:10090000B61A754640EA5C005B084FEA3202B6EB65
:10091000020E75EB030E22BFB61A754640EA9C0024
:100920005B084FEA3202B6EB020E75EB030E22BFF4
:10093000B61A754640EADC0055EA060E18D04FEAB2
:10094000051545EA16754FEA06164FEAC30343EA52
:1009500052734FEAC2025FEA1C1CC0D111F4801F1F
:100960000BD141EA00014FF000004FF0004CB6E718
:1009700011F4801F04BF01430020B4F1FD0C88BFB7
:10098000BCF5E06F3FF6AFAEB5EB030C04BFB6EBC2
:10099000020C5FEA500C50F1000041EB045170BDB5
:1009A0000EF0004E4EEA113114EB5C04C2BFD4EBE2
:1009B0000C0541EA045170BD41F480114FF0000E66
:1009C000013C90E645EA060E8DE60CEA135594EAE2
:1009D0000C0F08BF95EA0C0F3FF43BAF94EA0C0FE5
:1009E0000AD150EA01347FF434AF95EA0C0F7FF45A
:1009F00025AF104619462CE795EA0C0F06D152EAAE
:100A000003353FF4FDAE1046194622E750EA410691
:100A100018BF52EA43067FF4C5AE50EA41047FF4A2
:100A20000DAF52EA43057FF4EBAE12E74FF0FF3C07
:100A300006E000BF4FF0010C02E000BF4FF0010CD8
:100A40004DF804CD4FEA410C7FEA6C5C4FEA430C51
:100A500018BF7FEA6C5C1BD001B050EA410C0CBFA0
:100A600052EA430C91EA030F02BF90EA020F002002
:100A7000704710F1000F91EA030F58BF994208BF69
:100A800090422CBFD8176FEAE37040F00100704726
:100A90004FEA410C7FEA6C5C02D150EA013C07D17D
:100AA0004FEA430C7FEA6C5CD6D152EA033CD3D0C8
:100AB0005DF8040B704700BF8446104662468C46C2
:100AC0001946634600E000BF01B5FFF7B7FF0028F5
:100AD00048BF10F1000F01BD4DF808EDFFF7F4FF1E
:100AE0000CBF012000205DF808FB00BF4DF808EDA9
:100AF000FFF7EAFF34BF012000205DF808FB00BFCC
:100B00004DF808EDFFF7E0FF94BF012000205DF8ED
:100B100008FB00BF4DF808EDFFF7CEFF94BF0120A2
:100B200000205DF808FB00BF4DF808EDFFF7C4FF9B
:100B300034BF012000205DF808FB00BF4FEA410CE4
:100B40007FEA6C5C02D150EA013C0AD14FEA430CC7
:100B50007FEA6C5C02D152EA033C02D14FF0000004
:100B600070474FF0010070474FEA410212F5001242
:100B700015D211D56FF47873B3EB625212D94FEAE4
:100B8000C12343F0004343EA505311F0004F23FACE
:100B900002F018BF404270474FF00000704750EA23
:100BA000013005D111F0004008BF6FF000407047E0
:100BB0004FF00000704700BF4A0011D212F500123A
:100BC00011D20DD56FF47873B3EB62520ED44FEAA5
:100BD000C12343F0004343EA505323FA02F0704725
:100BE0004FF00000704750EA013002D14FF0FF3063
:100BF00070474FF0000070474FEA4102B2F1E04306
:100C000024BFB3F5001CDCF1FE5C0DD901F0004CF3
:100C10004FEAC0024CEA5070B2F1004F40EB830043
:100C200008BF20F00100704711F0804F21D113F16F
:100C30003872BCBF01F00040704741F480114FEAA8
:100C40005252C2F11802C2F1200C10FA0CF320FA31
:100C500002F018BF40F001004FEAC1234FEAD3234E
:100C600003FA0CFC40EA0C0023FA02F34FEA4303B8
:100C7000CCE77FEA625307D150EA01331EBF4FF041
:100C8000FE4040F44000704701F0004040F0FE405C
:100C900040F40000704700BF53B94AB9002908BFAB
:100CA00000281CBF4FF0FF314FF0FF3000F074B947
:100CB000ADF1080C6DE904CE00F006F8DDF804E0B3
:100CC000DDE9022304B070472DE9F047089D044692
:100CD0008E46002B4DD18A42944669D9B2FA82F2EF
:100CE00052B101FA02F3C2F1200120FA01F10CFA2B
:100CF00002FC41EA030E94404FEA1C48210CBEFB63
:100D0000F8F61FFA8CF708FB16E341EA034306FBEB
:100D100007F199420AD91CEB030306F1FF3080F07A
:100D20001F81994240F21C81023E63445B1AA4B2C7
:100D3000B3FBF8F008FB103344EA034400FB07F769
:100D4000A7420AD91CEB040400F1FF3380F00A81AA
:100D5000A74240F207816444023840EA0640E41B9F
:100D600000261DB1D4400023C5E900433146BDE84B
:100D7000F0878B4209D9002D00F0EF800026C5E9ED
:100D8000000130463146BDE8F087B3FA83F6002E05
:100D90004AD18B4202D3824200F2F980841A61EB7D
:100DA000030301209E46002DE0D0C5E9004EDDE79B
:100DB00002B9FFDEB2FA82F2002A40F09280A1EB83
:100DC0000C014FEA1C471FFA8CFE0126200CB1FBD8
:100DD000F7F307FB131140EA01410EFB03F08842D1
:100DE00008D91CEB010103F1FF3802D2884200F25E
:100DF000CB804346091AA4B2B1FBF7F007FB1011F0
:100E000044EA01440EFB00FEA64508D91CEB04048D
:100E100000F1FF3102D2A64500F2BB800846A4EBE8
:100E20000E0440EA03409CE7C6F12007B34022FAD3
:100E300007FC4CEA030C20FA07F401FA06F31C4302
:100E4000F9404FEA1C4900FA06F3B1FBF9F8200C0F
:100E50001FFA8CFE09FB181140EA014108FB0EF055
:100E6000884202FA06F20BD91CEB010108F1FF3AA5
:100E700080F08880884240F28580A8F102086144B1
:100E8000091AA4B2B1FBF9F009FB101144EA0141BF
:100E900000FB0EFE8E4508D91CEB010100F1FF346A
:100EA0006CD28E456AD90238614440EA0840A0FB02
:100EB0000294A1EB0E01A142C846A64656D353D0D8
:100EC0005DB1B3EB080261EB0E0101FA07F722FAFC
:100ED00006F3F1401F43C5E9007100263146BDE825
:100EE000F087C2F12003D8400CFA02FC21FA03F388
:100EF000914001434FEA1C471FFA8CFEB3FBF7F009
:100F000007FB10360B0C43EA064300FB0EF69E422D
:100F100004FA02F408D91CEB030300F1FF382FD2C6
:100F20009E422DD9023863449B1B89B2B3FBF7F66E
:100F300007FB163341EA034106FB0EF38B4208D947
:100F40001CEB010106F1FF3816D28B4214D9023E88
:100F50006144C91A46EA004638E72E46284605E7A6
:100F60000646E3E61846F8E64B45A9D2B9EB020877
:100F700064EB0C0E0138A3E74646EAE7204694E707
:100F80004046D1E7D0467BE7023B614432E730463A
:100F900009E76444023842E7704700BF70B5104E5D
:100FA000336913F4007301D0002070BD0D4C0E4D59
:100FB00023702B702B78042B04D92078431F5842C0
:100FC0005841F2E70A2004F0BAFF33699A05EBD4DE
:100FD00023780133DBB223702B780133DBB2E8E7EF
:100FE00000040240340300203503002070B5104E89
:100FF000336913F4807301D0002070BD0D4C0E4D89
:1010000023702B702B78042B04D92078431F58426F
:101010005841F2E70A2004F092FF3369DA05EBD475
:1010200023780133DBB223702B780133DBB2E8E79E
:1010300000040240340300203503002070B5104E38
:10104000336913F0800301D0002070BD0D4C0E4DAC
:1010500023702B702B78042B04D92078431F58421F
:101060005841F2E70A2004F06AFF33691A06EBD40C
:1010700023780133DBB223702B780133DBB2E8E74E
:1010800000040240340300203503002070B5104EE8
:10109000336913F0400301D0002070BD0D4C0E4D9C
:1010A00023702B702B78042B04D92078431F5842CF
:1010B0005841F2E70A2004F042FF33695A06EBD4A4
:1010C00023780133DBB223702B780133DBB2E8E7FE
:1010D00000040240340300203503002070B5104E98
:1010E000336913F0200301D0002070BD0D4C0E4D6C
:1010F00023702B702B78042B04D92078431F58427F
:101100005841F2E70A2004F01AFF33699A06EBD43B
:1011100023780133DBB223702B780133DBB2E8E7AD
:1011200000040240340300203503002070B5104E47
:10113000336913F0100301D0002070BD0D4C0E4D2B
:1011400023702B702B78042B04D92078431F58422E
:101150005841F2E70A2004F0F2FE3369DA06EBD4D4
:1011600023780133DBB223702B780133DBB2E8E75D
:1011700000040240340300203503002082B0084BF5
:101180000190019A1B680749B3FBF1F353430193A4
:10119000019B5A1E0192002BFAD102B0704700BF8A
:1011A00044010020404B4C007FB51422002101A8CF
:1011B00005F0ACF9102369460348009304F008FCDD
:1011C00007B05DF804FB00BF0000024010B510241A
:1011D00086B02246002102A805F098F90094064C3A
:1011E000012369462046019304F0F2FB4FF480137B
:1011F000A36106B010BD00BF000002407FB51422FD
:10120000002101A805F082F92023694603480093D4
:1012100004F0DEFB07B05DF804FB00BF00000240F5
:1012200010B50A4C86B01022002102A805F06EF914
:101230002022012369462046CDE9002304F0C8FBA3
:101240004FF40013A36106B010BD00BF00000240C0
:1012500008B5FFF7BBFF1420FFF790FFFFF7E0FF93
:101260001420FFF78BFFFFF79FFF1420FFF786FF87
:10127000FFF7C4FF1420FFF781FF0C4B00221A7008
:101280000B4A10691169C2065EBF1A780132D2B2E8
:1012900001F0200158BF1A7019B91A780132D2B280
:1012A0001A70BDE808405020FFF768BF37030020E0
:1012B0000000024008B5FFF7CBFFBDE80840FFF78C
:1012C000C7BF08B5FFF79AFF1420FFF757FFFFF7D6
:1012D0006BFF1420FFF752FFFFF7A2FF1420FFF768
:1012E0004DFFFFF773FFBDE808401420FFF746BF2E
:1012F00038B504460825230624D5FFF77FFF1420C0
:10130000FFF73CFF013DFFF74FFF1420FFF736FFCB
:101310006400FFF75BFF15F0FF05E4B2EBD1FFF7C8
:101320006DFF1420FFF72AFFFFF73EFF1420FFF7A1
:1013300025FF064B1C69FFF749FF84F02000C0F32E
:10134000401038BDFFF76CFFD9E700BF0000024036
:10135000F8B50646FFF752FF184F08250024FFF79F
:1013600023FF1420FFF70AFFFFF748FF3B696400E3
:101370009B06E4B248BF44F00104013DFFF726FF9D
:101380001420FFF7FBFE15F0FF05E8D196B9FFF733
:1013900047FF1420FFF7F2FEFFF706FF1420FFF7C8
:1013A000EDFEFFF713FF1420FFF7E8FEFFF726FF1F
:1013B0002046F8BDFFF722FFEBE700BF0000024028
:1013C00038B505460C46FFF77CFF7C20FFF790FF01
:1013D00010B90A4B01221A702846FFF789FF10B98D
:1013E000064B02221A702046FFF782FF10B9034B0A
:1013F00003221A70BDE83840FFF72ABF36030020E9
:1014000013B50446FFF75DFF7C20FFF771FF10B9AD
:101410000D4B04221A702046FFF76AFF10B90A4BE1
:1014200005221A70FFF74DFF7D20FFF761FF10B90D
:10143000054B06221A700120FFF78AFF0190FFF783
:1014400007FF019802B010BD36030020DFED367AA9
:10145000B4EEE70AF1EE10FA37B5054661D4DFEDD8
:10146000337AB4EE670AF1EE10FAC8BFB0EE670A3D
:10147000F3EE047A60EE277A17EE900AFFF76CF825
:1014800041EC100B04F076FD51EC100BFFF794FBD0
:1014900080B2ADF80400BDF804309BB2ADF8063060
:1014A000BDF8041002208CB2FFF7AAFF00F07F0104
:1014B00041EAC411C9B20220FFF782FFBDF806302D
:1014C000C3F34E03ADF80630BDF806100020C9B2D4
:1014D000FFF776FFBDF80630C3F30723ADF80630FB
:1014E0000120BDF80640FFF78BFFA4B200F0F80022
:1014F00004F0070440EA04010120FFF761FF0C4CEF
:10150000012D0CBF022100210E20FFF759FF237887
:101510001BB12178074805F06BFC0023237003B052
:1015200030BDB0EE670AA3E700008C420000D8424D
:10153000360300206F94000807EE900AF8EE677AF1
:1015400008B517EE900AFFF707F805A3D3E90023C3
:10155000FFF75AF8FFF750FB00EE100A08BD00BF76
:101560009A9999999999A93FF3EE047A60EE277AAE
:1015700008B517EE900AFEF7EFFF41EC100B04F0F0
:10158000F9FC51EC100BFFF717FB80B208BD0F28D8
:1015900028BF0F2010B504460120FFF731FF04F0EB
:1015A000030100F03F0040EA81110120FFF708FF2E
:1015B0001320FFF725FF04F0040100F07F0040EA4C
:1015C00041111320FFF7FCFE0220FFF719FF04F082
:1015D000080420F0400040EAC404E1B20220BDE863
:1015E0001040FFF7EDBE38B50120FFF709FF0546B3
:1015F0001320FFF705FF04460220FFF701FF6409EF
:10160000C30803F0080304F004041C4344EA9510E3
:10161000C0B238BD08B50420FFF7F2FE430607D478
:1016200040F04000C1B2BDE808400420FFF7C8BE4A
:1016300008BD000008B5FFF73DFEFFF7EBFF0020F7
:10164000FFF7A5FFFFF7CFFFBDE8084001460148BF
:1016500005F0CEBB7E9400082DE9FF41274E284CB3
:10166000284F002501238DF804508DF80550337064
:1016700001F0C2FE01F0EAFE25708DF806503A88AE
:101680002149ADF80C50302392B202A8029305F024
:101690003DFC1E4A8DF8075042F20F719DF807304D
:1016A000042B11D91A4F1B4D337803F0FF08002B80
:1016B00036D101F0DDFE184B83F80080174B012274
:1016C0001A7004B0BDE8F0813B889BB28B429DF854
:1016D00007309DF8070003F110036B4488BFC0B2C8
:1016E00013F8083C98BF0130303BDBB213549DF82F
:1016F00007300133DBB28DF80730CFE73A03002023
:1017000044030020FE000020F69400083E03002061
:101710006400002046030020FC000020FD000020A3
:101720000021084601F07EFE3946AD4805F00EFC6A
:10173000AB4801F06AFE9DF80630042B0ED89DF8E8
:1017400006300133DBB28DF8063023780133DBB28B
:1017500023702378042B84BF00232370FFF796FCAB
:10176000DFF8A48228B333781BB32278D2B218F8FA
:1017700002300133DBB208F802302378DBB218F80C
:101780000330092B81BF2378DBB2002208F8032045
:10179000237803F0FF024BB92378DBB218F803304B
:1017A000022B82BF2378DBB208F80320642004F008
:1017B000C6FBFFF743FC20B3337813B32278D2B2D1
:1017C00018F80230013BDBB208F802302378DBB2B4
:1017D00018F80330092B81BF2378DBB2092208F8FF
:1017E0000320237853B92378DBB218F80330022B97
:1017F00081BF2378DBB2022208F80320642004F0C2
:101800009EFBFFF7F3FB78B133786BB1237801339C
:10181000DBB223702378042B88BF00234FF06400D1
:1018200088BF237004F08BFBFFF758FC78B1337846
:101830006BB12378013BDBB223702378042B88BF84
:1018400004234FF0640088BF237004F078FB2378F2
:101850006449DBB28DF804302378DBB20A2018F833
:101860000330DFF8A881DBB28DF805309DF8052044
:101870009DF804308A5CDBB2012108F8032001F0F6
:10188000D1FD9DF804205849584805F03FFB5748C2
:1018900001F0BBFD01210D2001F0C4FD9DF80520E4
:1018A0005149524805F032FB504801F0AEFD98F81E
:1018B0000030303BC3EB431203EB820303EB8303A3
:1018C0001B019BB22B8098F801302A88303BC3EB78
:1018D000431103EB810302EBC3039BB22B8098F807
:1018E00002302A88303B03EB830303EB830302EBD4
:1018F00083039BB22B8098F803302A88303B03EB9C
:10190000830302EB43039BB22B8098F804202B88BF
:101910009BB2303B13449BB22B802B8842F20F7258
:101920009BB293424FF001014FF0000077D901F0D4
:1019300079FD2A882C492D4892B205F0E7FA2B4808
:1019400001F063FD0121062001F06CFD284801F043
:101950005CFD9DF80400012101F064FDFFF71EFB12
:1019600040B3337833B3288880B202F055F903F0DE
:101970005DFE2988202089B203F0DEFE01F03CFDE7
:101980001C49174805F0E2FA154801F03EFD4FF4F6
:101990007A7004F0D4FA184B46221A80174A0023B2
:1019A00033701370164A1370164B012264201A709C
:1019B00004F0C5FAFFF7BAFB68B333785BB3288845
:1019C00080B202F029F90C4B46221A800B4A002300
:1019D000337013700A4A13700A4B0122642017E017
:1019E0005003002079950008F69400086103002058
:1019F00092960008000000204A0300204E030020B9
:101A00004F030020480300203E0300201100002067
:101A10001A7004F094FA642004F091FA44E601F09C
:101A200001FD034801F0F1FC012108467FE700BFFA
:101A3000E0940008000000002DE9F04FDFF8EC8092
:101A4000DFF8EC90344CDFF8ECA085B000250123E2
:101A50008DF804508DF8055088F8003001F0CCFC6A
:101A600001F0F4FC99ED007ADFED2C7A257067EE39
:101A7000277A302317EE900A0293ADF80C508DF8B8
:101A80000650FEF769FD41EC100B04F073FA51ECBF
:101A9000100BFFF791F880B2AAF80000BAF8002006
:101AA0001F4992B202A805F031FA1E4A8DF807507C
:101AB00042F20F719DF80730042B0BD914A7D7E918
:101AC0000067194D98F80030B3BB01F0D1FC05B0A8
:101AD000BDE8F08FBAF800309BB28B429DF807301A
:101AE0009DF8070003F110036B4488BFC0B213F8E0
:101AF000083C98BF0130303BDBB213549DF80730EF
:101B00000133DBB28DF80730D4E700BFAFF30080BC
:101B10007B14AE47E17A843F440300200000C842B2
:101B2000F69400083E030020460300203A030020FC
:101B30000C010020380300200021084601F072FC4F
:101B4000B649B74805F002FAB54801F05EFC9DF8C9
:101B50000630042B0ED89DF806300133DBB28DF829
:101B6000063023780133DBB223702378042B84BF43
:101B700000232370FFF78AFADFF8C8B230B398F871
:101B800000301BB32278D2B21BF802300133DBB233
:101B90000BF802302378DBB21BF80330092B81BF2E
:101BA0002378DBB200220BF80320237803F0FF0236
:101BB0004BB92378DBB21BF80330012B82BF2378AB
:101BC000DBB20BF80320642004F0B9F9FFF736FA12
:101BD00028B398F8003013B32278D2B21BF8023041
:101BE000013BDBB20BF802302378DBB21BF8033089
:101BF000092B81BF2378DBB209220BF8032023785D
:101C000053B92378DBB21BF80330012B81BF237853
:101C1000DBB201220BF80320642004F090F9FFF7F7
:101C2000E5F980B198F800306BB123780133DBB26D
:101C300023702378042B88BF00234FF0640088BFF3
:101C4000237004F07CF9FFF749FA80B198F800306E
:101C50006BB12378013BDBB223702378042B88BF60
:101C600004234FF0640088BF237004F068F92378E0
:101C70006C49DBB28DF804302378DBB20B201BF803
:101C80000330DFF8C4B1DBB28DF805309DF80520D4
:101C90009DF804308A5CDBB201210BF8032001F0CF
:101CA000C1FB9DF804206049604805F02FF95F48AA
:101CB00001F0ABFB01210E2001F0B4FB9DF80520E3
:101CC00059495A4805F022F9584801F09EFB9BF803
:101CD0000030303BC3EB431203EB820303EB83037F
:101CE0001B019BB22B809BF801302A88303BC3EB51
:101CF000431103EB810302EBC3039BB22B809BF8E0
:101D000002302A88303B03EB830303EB830302EBAF
:101D100083039BB22B809BF803302A88303B03EB74
:101D2000830302EB43039BB22B809BF804202B8898
:101D30009BB2303B13449BB22B802B8842F20F7234
:101D40009BB293424FF001014FF0000040F2AA8095
:101D500001F068FB2B889BB2AAF80030BAF80000AB
:101D600080B207EE900AF8EE677A17EE900AFEF757
:101D7000F3FB3B463246FEF747FCFEF73DFF2A8861
:101D80002949C9F8000092B2284805F0BFF8274851
:101D900001F03BFB0121052001F044FB244801F048
:101DA00034FB9DF80400012101F03CFBFFF7F6F83D
:101DB000002855D098F80030002B51D0FFF77AFA60
:101DC0001C4B99ED000A1878DFF880B0FFF73EFB56
:101DD00099ED000AFFF7C8FBABF80000642004F09F
:101DE000AEF803F023FCBBF80010102003F0A4FCB5
:101DF00001F002FB10490A4805F0A8F8084801F074
:101E000004FB4FF47A7004F09AF80C4B5A221A80B3
:101E10000B4A002388F80030137019E0640000209A
:101E20005003002079950008F69400086103002013
:101E3000A294000850040020000000204A03002063
:101E40004E0300203E030020110000200A01002064
:101E5000184A1370184B012264201A7004F06FF8AE
:101E6000FFF764F9D0B198F80030BBB1FFF722FA60
:101E7000124B99ED000A1878FFF7E8FA104B5A2236
:101E80001A80104A002388F800301370094A137032
:101E9000094B012264201A7004F051F8642004F008
:101EA0004EF80FE601F0BEFA074801F0AEFA012144
:101EB00008464DE74F03002048030020500400204F
:101EC0004A0300204E030020E0940008044B1B88C6
:101ED0009AB2044BB3FBF2F3034A9BB213807047F0
:101EE0008A040020A08601003C030020F7B50123EE
:101EF0008DF8073001F080FA01F0A8FA5D4D5E4ED2
:101F00005E4F9DF8073023B903B0BDE8F04001F003
:101F1000AFBA0021084601F085FA284601F075FAAB
:101F200001210020FFF7D2FF01F07CFA32885448EB
:101F3000544C92B2394604F0E9FF514801F065FA79
:101F40000121062001F06EFA4F4801F05EFAFFF71A
:101F50009DF888B19DF8073073B123780133DBB267
:101F600023702378042B84BF00232370207802F091
:101F7000B7FA642003F0E3FFFFF760F888B19DF83B
:101F8000073073B12378013BDBB223702378042B35
:101F900084BF04232370207802F0A2FA642003F0A7
:101FA000CEFF01210A2001F03DFA22783749384856
:101FB00004F0ACFF364801F028FAFEF7EFFF40B31B
:101FC0009DF807302BB3207802F08AFA03F02EFB3D
:101FD0002178402003F0B0FB01F00EFA2D4928488B
:101FE00004F0B4FF264801F010FA4FF47A7003F0C1
:101FF000A6FF294B50221A80284A00231370284A32
:102000001370284A0121642011708DF8073003F005
:1020100096FFFFF78BF890B19DF807307BB11E4B10
:1020200050221A801D4A002313701D4A13701D4A46
:102030000121642011708DF8073003F080FFFFF755
:102040004DF890B19DF807307BB1134B50221A80A8
:10205000124A00231370124A1370124A012164209D
:1020600011708DF8073003F06AFF642003F067FFFA
:1020700047E700BFA89400083C030020B99400087B
:10208000500300201000002092960008F6940008EB
:1020900061030020000000204A0300204E030020BE
:1020A0004F0300204803002073B54FF080427B4C63
:1020B000D36B7B4D7B4EDBB28DF80530D36BDBB23F
:1020C0008DF8063001238DF8073001F095F901F005
:1020D000BDF99DF8073023B902B0BDE8704001F0AA
:1020E000C7B90021084601F09DF9204601F08DF99D
:1020F00000210A2001F096F9284601F086F9002116
:102100000A2001F08FF932686749684804F0FEFE42
:10211000664801F07AF9FEF7B9FFD0B19DF80730B3
:10212000BBB19DF805309FED620A0133DBB28DF83B
:1021300005309DF80530072B84BF00238DF805304E
:1021400000209DF80510012201F0CAFF642003F071
:10215000F6FEFEF773FFD0B19DF80730BBB19DF8D6
:1021600005309FED530A013BDBB28DF805309DF839
:102170000530072B84BF07238DF8053000209DF81C
:102180000510012201F0ACFF642003F0D8FE01210C
:10219000084601F047F99DF805204649464804F0F5
:1021A000B5FE454801F031F90121032001F03AF96B
:1021B000424801F02AF90121084601F033F9FEF7FF
:1021C000EDFE70B39DF807305BB301229FED380A36
:1021D0009DF80510002001F083FF03F027FA9DF819
:1021E0000510302003F0A8FA01F006F934492F4811
:1021F00004F0ACFE2D4801F008F94FF47A7003F0BA
:102200009EFE304B14221A802F4A002313702F4A4F
:1022100013702F4A0121642011708DF8073003F0EC
:102220008EFEFEF783FF90B19DF807307BB1254B02
:1022300014221A80244A00231370244A1370244A5B
:102240000121642011708DF8073003F078FEFEF74D
:1022500045FF90B19DF807307BB11A4B14221A80CC
:10226000194A00231370194A1370194A0121642076
:1022700011708DF8073003F062FE9DF805209DF87F
:1022800006309A4205D0134B00221A70124B0122DD
:102290001A70642003F053FE1BE700BFBD940008D2
:1022A000DB940008D803002071960008500300203A
:1022B00000000000F694000861030020C6940008A6
:1022C000000000204A0300204E0300204F0300209E
:1022D00048030020FC000020FD00002070B50546EA
:1022E0000E4601F089F88649864804F02FFE85489D
:1022F00001F08BF80021042001F094F8824801F0ED
:1023000084F8632D03DD0021042001F08BF8ACB2CA
:10231000631E622B08D80021052001F083F8092CE8
:102320001BD80021062016E015F1630F03DA002107
:10233000032001F077F804F163039BB2622B03D80A
:102340000021042001F06EF804F109039BB2082B70
:10235000E5D80021052001F065F82A466B49694857
:1023600004F0D4FD674801F050F80021092001F085
:1023700059F86749634804F0E9FD624801F045F8FF
:1023800000210A2001F04EF8002E03DD00210B2071
:1023900001F048F832465F495A4804F0B7FD594801
:1023A00001F033F80121002001F03CF85A4801F017
:1023B0002CF815F15A0F06DA0020012101F032F84D
:1023C000564801F022F804F15A039BB21D2B30D875
:1023D0000121084601F026F8514801F016F8A4F151
:1023E0000A03092B31D80520012101F01BF84D48C3
:1023F00001F00BF8A4F12803092B31D808200121A2
:1024000001F010F8484801F000F8A4F14603092B48
:1024100031D80B20012101F005F8434800F0F5FF09
:10242000643C092C66D801210E2000F0FBFF3F48D8
:102430002AE004F13C039BB21D2B29D80220012184
:1024400000F0F0FF364800F0E0FFA4F11403092B80
:102450002AD80620012100F0E5FF354800F0D5FF1D
:10246000A4F13203092B2AD80920012100F0DAFF58
:102470002D4800F0CAFFA4F15003092B2AD80121EE
:102480000C2000F0CFFF2B48BDE8704000F0BDBF2E
:1024900004F11E039BB21D2B23D80320012100F061
:1024A000C1FF254800F0B1FFA4F11E03092BA1D8FC
:1024B0000720012100F0B6FF1D4800F0A6FFA4F19F
:1024C0003C03092BA1D80A20012100F0ABFF1648DC
:1024D00000F09BFFA4F15A03092BA1D801210D2084
:1024E000CFE7092C3FF67BAF0420012100F09AFFD3
:1024F0000C48D7E76D2D02DD01210F2095E770BD57
:102500008500002050030020DE940008F6940008A7
:102510008200002071960008D19400087B9A000880
:10252000E2940008E6940008EA940008EE9400089B
:10253000E8940008EC940008E494000810B500F05A
:102540005BFF0C4B0C4A0D4C1168184604F0FEFC66
:1025500000F05BFF0121002000F064FF084B0949F7
:102560001A88204692B204F0D1FC2046BDE8104003
:1025700000F04BBF50030020180000206103002032
:1025800018010020F694000837B500F035FF4A48DE
:102590004A4D4B4C00F039FF01238DF807309DF870
:1025A00007300BB903B030BD0121002000F03AFF25
:1025B000284600F02AFF23889BB2092B4FF0010127
:1025C00094BF0846002000F02DFF22883D493E4878
:1025D00092B204F09BFC3C4800F017FFFEF756FD5A
:1025E00080B123889BB2092B23888CBF053301332C
:1025F0009BB2238023889BB2B3F57A7F84BF4FF4CC
:102600007A732380FEF71AFD70B123889BB20A2BE0
:1026100023888CBF053B03F1FF339BB223802388C3
:102620009BB20BB901232380FEF7B8FC00B302F084
:10263000FDFF2188502089B203F07EF800F0DCFE17
:102640002249234804F082FC214800F0DEFE4FF4CA
:102650007A7003F074FC1F4B0A221A801E4A002372
:102660008DF8073013701D4A13701D4B01221A702C
:10267000FEF75CFD60B1174B0A221A80164A002350
:102680008DF807301370154A1370154B01221A701C
:10269000FEF724FD60B10F4B0A221A800E4A002378
:1026A0008DF8073013700D4A13700D4B01221A700C
:1026B000642003F044FC72E7A8940008DC9400084E
:1026C00018010020F694000861030020000000209B
:1026D000500300204A0300204E0300204F03002037
:1026E0004803002037B500F087FE3A483A4C3B4D8E
:1026F00000F08BFE01238DF807309DF807300BB9F1
:1027000003B030BD0121002000F08CFE2278344857
:10271000294604F0FBFB324800F077FEFEF7B6FCDA
:1027200020B12378C3F10103DBB22370FEF786FCEE
:1027300020B12378C3F10103DBB22370FEF72EFC36
:1027400018B302F073FF237803F00103237021789C
:10275000602002F0F1FF00F04FFE2249224804F011
:10276000F5FB214800F051FE4FF47A7003F0E7FBCF
:102770001E4B28221A801E4A00238DF80730137042
:102780001C4A13701C4B01221A70FEF7CFFC60B17B
:10279000164B28221A80164A00238DF80730137032
:1027A000144A1370144B01221A70FEF797FC60B1A3
:1027B0000E4B28221A800E4A00238DF80730137022
:1027C0000C4A13700C4B01221A70642003F0B7FB03
:1027D00093E700BFA894000817010020F0940008B8
:1027E0006103002000000020500300204A03002065
:1027F0004E0300204F0300204803002037B500F0AF
:10280000FBFD3A483A4C3B4D00F0FFFD01238DF8AB
:1028100007309DF807300BB903B030BD012100200F
:1028200000F000FE22783448294604F06FFB32485D
:1028300000F0EBFDFEF72AFC20B12378C3F1010381
:10284000DBB22370FEF7FAFB20B12378C3F101035A
:10285000DBB22370FEF7A2FB18B302F0E7FE237889
:1028600003F0010323702178802002F065FF00F05F
:10287000C3FD2249224804F069FB214800F0C5FD50
:102880004FF47A7003F05BFB1E4B32221A801E4A13
:1028900000238DF8073013701C4A13701C4B012263
:1028A0001A70FEF743FC60B1164B32221A80164AAA
:1028B00000238DF807301370144A1370144B012253
:1028C0001A70FEF70BFC60B10E4B32221A800E4AD2
:1028D00000238DF8073013700C4A13700C4B012243
:1028E0001A70642003F02BFB93E700BFA894000844
:1028F00014010020F994000861030020000000206A
:10290000500300204A0300204E0300204F03002004
:102910004803002037B500F06FFD3A483A4C3B4D74
:1029200000F073FD01238DF807309DF807300BB9D7
:1029300003B030BD0121002000F074FD227834483E
:10294000294604F0E3FA324800F05FFDFEF79EFBF3
:1029500020B12378C3F10103DBB22370FEF76EFBD5
:1029600020B12378C3F10103DBB22370FEF716FB1D
:1029700018B302F05BFE237803F001032370217883
:10298000902002F0D9FE00F037FD2249224804F0E1
:10299000DDFA214800F039FD4FF47A7003F0CFFAE8
:1029A0001E4B1E221A801E4A00238DF8073013701A
:1029B0001C4A13701C4B01221A70FEF7B7FB60B162
:1029C000164B1E221A80164A00238DF8073013700A
:1029D000144A1370144B01221A70FEF77FFB60B18A
:1029E0000E4B1E221A800E4A00238DF807301370FA
:1029F0000C4A13700C4B01221A70642003F09FFAEA
:102A000093E700BFA89400084C040020F09400084D
:102A10006103002000000020500300204A03002032
:102A20004E0300204F0300204803002037B500F07C
:102A3000E3FC4948494C4A4D00F0E7FC01238DF87E
:102A400007309DF807300BB903B030BD01210020DD
:102A500000F0E8FC23884348012B0CBF424943495E
:102A600004F074FA3F4800F0D0FCFEF70FFB18B1F9
:102A70002388C3F101032380FEF7E0FA18B123880D
:102A8000C3F101032380FEF789FA68B302F0CEFD9B
:102A90002188B02001F00101218002F04DFE00F0FC
:102AA000ABFC3349334804F051FA324800F0ADFC36
:102AB0004FF47A7003F043FA2F4B5A221A802F4AB0
:102AC00000238DF8073013702D4A13702D4B01220F
:102AD0001A702388934236D10423AB614FF4FA7005
:102AE00003F02DFA01F0C4FDFEF720FBB8B1224B34
:102AF0005A221A80214A00238DF807301370204A89
:102B00001370204B01221A70238893421FD1042393
:102B1000AB614FF4FA7003F012FA01F0A9FDFEF771
:102B2000DDFA60B1144B5A221A80144A00238DF842
:102B300007301370124A1370124B01221A7064206E
:102B400003F0FDF97DE74FF48023AB61CCE74FF450
:102B50008023AB61E3E700BFA894000810010020C8
:102B60000004024061030020400000203C000020DF
:102B700000000020500300204A0300204E030020E4
:102B80004F0300204803002010B5C24C23889BB29D
:102B90005C2B00F2CC80452B0AD81F2B5AD8132B64
:102BA0003AD80A2B00F0FB800B2B00F0FC8010BD04
:102BB000463B162BFBD801A252F823F0F52E000855
:102BC000412F0008512F0008AF2B0008AF2B000841
:102BD000AF2B0008AF2B0008AF2B0008AF2B00086D
:102BE000AF2B0008BD2F0008EF2F0008AF2B000807
:102BF000AF2B0008AF2B0008AF2B0008AF2B00084D
:102C0000AF2B0008AF2B0008AF2B0008F72F0008F0
:102C10002B3000087B300008143B0B2BC7D801A2D7
:102C200052F823F0C52D0008F72D0008AF2B00083F
:102C3000AF2B0008AF2B0008AF2B0008AF2B00080C
:102C4000AF2B0008AF2B0008AF2B0008052E0008A3
:102C5000312E0008332B1FD8272BA8D9283B0B2B4C
:102C6000A5D801A252F823F03D2E00085D2E0008E1
:102C7000AF2B0008AF2B0008AF2B0008AF2B0008CC
:102C8000AF2B0008AF2B0008AF2B0008AF2B0008BC
:102C9000692E00088D2E00083C2B88D100F0ACFB7B
:102CA0007D4B7E48596904F051F97C4800F0ADFB3A
:102CB0007B4B93ED000A7B4BD3ED000A7A4B93EDEF
:102CC000001A7A4BD3ED001AB8EEC11AF8EEE11AE9
:102CD000F8EEE00AB8EEC00A01F06EF90021092012
:102CE00000F0A0FB724B73491A686C4804F00EF9AF
:102CF0006A4800F08AFB00210E2000F093FB6E482A
:102D000000F083FB0121002000F08CFB6B4B694934
:102D10001A686B4804F0FAF8694800F076FB012164
:102D2000082000F07FFB674B62491A687BE040F2A5
:102D3000C622934200F0088116D8B3F59B7F7BD062
:102D400008D86E2B33D0D22B7FF431AFBDE81040C2
:102D5000FFF7AAB9B3F5CD7F00F08480B3F5FF7F0C
:102D60007FF425AF322323E040F28E32934200F00D
:102D70006B810CD8B3F5347F00F0FC8040F22A322E
:102D800093427FF414AFBDE81040FFF7AFB8B3F53E
:102D9000667F7FF40CAFBDE81040FFF747BEBDE88B
:102DA0001040FFF7CBBBBDE81040FFF7EDBB0A2397
:102DB000454A238000231370444A1370444B012278
:102DC0001A70F4E600F018FB334B3448596804F0ED
:102DD000BDF8324800F019FB0121002000F022FB71
:102DE0003C4B3D491A682D4804F090F82B48BDE84B
:102DF000104000F00ABB00F0FFFA3849274804F001
:102E0000A5F8F3E700F0F8FA234B2448996804F09A
:102E10009DF8224800F0F9FA0121002000F002FBA1
:102E20002F4B1A782F49264804F070F82448DEE723
:102E3000BDE81040FFF76EBD1E23B9E700F0DCFAD5
:102E4000154B1648D96804F081F8144800F0DDFAF3
:102E50000121002000F0E6FA234BE2E7BDE8104034
:102E6000FFF740BC2823A3E700F0C6FA0A4B0B4843
:102E7000196904F06BF8094800F0C7FA0121002035
:102E800000F0D0FA194B1A491A78CCE7BDE8104087
:102E9000FFF7B4BC4A0300201800002050030020B4
:102EA000A0030020A4030020A8030020AC030020FE
:102EB000DC0300207196000807950008D00300206D
:102EC00061030020D40300204E0300204F030020A4
:102ED000480300201C010020B99400085A0000207B
:102EE0004C040020F0940008170100201401002079
:102EF000F994000800F080FA674B684C99696848BB
:102F000004F024F8664800F080FA238842F20F7239
:102F10009BB293424FF0010194BF0846002000F09D
:102F200081FA22885F49604892B203F0EFFF5E4861
:102F300000F06BFA0620012100F074FA5B4856E7B6
:102F400000F05AFA5A4959E7BDE81040FEF784BB31
:102F500000F052FA5749524803F0F8FF504800F089
:102F600054FA0121002000F05DFA53494E4803F065
:102F7000EDFF5BE700F040FA504800F046FA4FF4EE
:102F80007A7002F0DCFF00F09BFF0121092000F0C5
:102F900049FA4B4800F039FA4FF4FA6002F0CFFFDB
:102FA000484A49494623238000231370474A137037
:102FB00001220A7046490B70464B01E700F01CFAEB
:102FC000354B3748D96903F0C1FF354800F01DFA89
:102FD00001210020FEF77AFF00F024FA3E4B3F4922
:102FE0001A882F4892B203F091FF2D48A0E700F015
:102FF00003FA3B4902E700F0FFF93A4800F005FA0E
:103000000121002000F00EFA374B1B88012B0AD15A
:10301000364B1868FDF7A0FA02460B4622483449A1
:1030200003F074FF02E73349A0E700F0E5F9204917
:103030001B4803F08BFF1A4800F0E7F9002001213C
:1030400000F0F0F92C48D2E6274B1B88012B03D166
:10305000BDE81040FEF7F0BC00F0CEF9274800F0C4
:10306000D4F90121002000F0DDF9254800F0CDF968
:10307000BDE81040642002F062BF00F0BDF92148B5
:1030800000F0C3F90121002000F0CCF9164B1B8899
:10309000012BC8D11C4969E718000020FE00002060
:1030A00050030020F6940008610300209296000867
:1030B0006400002044000020500000200A95000811
:1030C0006A9600084E030020480300204F030020AA
:1030D000FC000020FD0000203C030020B994000803
:1030E0007500002017950008100100200C01002039
:1030F000579700083C000020A4940008269500087B
:10310000379500083E9500084000002070B5FEF796
:103110000DF8704D704C98B12A7802F0FF037AB91F
:1031200001222A706D4A13806D4A1370237000F0DB
:1031300063F96C4800F069F94FF47A7002F0FFFE11
:10314000FDF7F4FFA0B12B78012BDEB210D1634A5A
:1031500000232B701380624B1E7000F04DF9624803
:1031600000F053F94FF4FA7002F0E9FE5F4B1E7065
:103170002B78012B3FD1FDF761FF88B1237803F055
:10318000FF016BB9554A13880A339BB21380138829
:103190009BB25A2B4FF0640088BF118002F0CFFE23
:1031A000FDF774FF88B123787BB94C4A13880A3B3A
:1031B0009BB2138013889BB25A2B88BF5A234FF0BF
:1031C000640088BF138002F0BAFEFDF70FFF90B1D4
:1031D000237803F0FF0173B9404A454813889BB236
:1031E0000380138801339BB2138064200123237072
:1031F000297002F0A4FE2378012B6AD12B78002BD2
:1032000067D1FDF71BFF78B1394B344A1B88118811
:103210009BB289B202338B4206DB138801339BB227
:103220006420138002F08BFEFDF730FF78B12B4A4B
:103230002F4B11881B889BB289B20133994206DD5E
:103240001388013B9BB26420138002F078FEFDF7E7
:10325000CDFE98B127490B7883B9204A26481388B8
:103260009BB2038013889BB203EB83035B009BB28A
:103270001380642001230B7002F061FEFDF72EFF26
:1032800088B11C4A1378012BD8B20CD113490B8892
:103290000A269BB2B3FBF6F30B8000231370207059
:1032A000642002F04CFEFDF719FF90B12378012B4A
:1032B000DAB20ED10E4B09491B889BB20B800E4926
:1032C0000023237064200B802A70BDE8704002F058
:1032D00036BE70BD480300204F0300204A03002083
:1032E0008A00002048950008529500088E040020AE
:1032F0004C0300204E0300207203002008B5FFF7A6
:1033000005FF054B1B7833B9FFF73EFCBDE80840CD
:10331000642002F014BE08BD8A00002082B00023A1
:10332000ADF80630BDF806309BB2C72B01D902B00C
:103330007047BDF8063001339BB2F1E70F4B10F038
:10334000080F14BF4FF480524FF080529A61420729
:103350004CBF4FF400524FF0005281079A614CBFAE
:103360004FF480424FF080429A61C2074CBF4FF445
:1033700000424FF000429A61704700BF00040240D3
:10338000F8B50C4B0C4C4FF400229A6105464FF4F3
:1033900000470009FFF7D2FF4FF00046A761FFF793
:1033A000BDFF2846A661FFF7C9FFA761FFF7B6FF7B
:1033B000A661F8BD0004024000000240F8B50C4BC5
:1033C0000C4C08229A6105464FF400470009FFF7AC
:1033D000B5FF4FF00046A761FFF7A0FF2846A661A2
:1033E000FFF7ACFFA761FFF799FFA661F8BD00BF2B
:1033F000000402400000024008B50120FFF7C0FFB2
:10340000BDE80840022002F09ABD38B50546002408
:10341000E3B20134E85C00B938BDFFF7CFFFFFF736
:103420007DFFF5E710B511B1012909D010BD40F0BD
:103430008000FFF7A5FFBDE81040012002F07FBD2E
:10344000403060F07F00C0B2F3E7000008B5074BE2
:10345000187840F0020240F00E001A70FFF790FF5B
:10346000BDE80840022002F06ABD00BF74030020DE
:1034700008B5074B187800F0FD00187040F00C00FC
:10348000FFF77EFFBDE80840022002F058BD00BFF4
:103490007403002070B5322002F051FD264B274CFA
:1034A0004FF400229A614FF4004603204FF000458C
:1034B000FFF734FFFFF742FFA661FFF72FFF04205D
:1034C000A56102F03CFD0320FFF738FFA661FFF77E
:1034D00025FF0120A56102F032FD0320FFF72EFF3A
:1034E000A661FFF71BFF0120A56102F028FD022065
:1034F000FFF724FFA661FFF711FF0120A56102F08D
:103500001EFD2820FFF73CFF012002F018FD2820B7
:10351000FFF736FF012002F012FD0C20FFF730FF0D
:10352000012002F00CFD0620FFF72AFFBDE87040E5
:10353000322002F004BD00BF00040240000002403F
:1035400010B500248AB021460D2201A8009402F093
:10355000DDFF0D22214606A8059402F0D7FFFFF7F4
:103560004BFF21462046FFF75DFF3449684603F0D4
:10357000EDFC6846FFF749FF20460121FFF752FFA7
:103580002F4905A803F0E2FC05A8FFF73EFF4FF422
:10359000FA6002F0D4FCFFF72FFF21462046FFF728
:1035A00041FF2849684603F0D1FC6846FFF72DFF2C
:1035B00020460121FFF736FF234905A803F0C6FC8A
:1035C00005A8FFF722FF4FF4FA6002F0B8FCFFF7FE
:1035D00013FF1E49684603F0B9FC6846FFF715FF64
:1035E00020460121FFF71EFF194905A803F0AEFC94
:1035F00005A8FFF70AFF4FF4FA6002F0A0FCFFF7FE
:10360000FBFE1449684603F0A1FC6846FFF7FDFE87
:1036100020460121FFF706FF0F4905A803F096FC9D
:1036200005A8FFF7F2FE4FF4FA6002F088FCFFF7FE
:10363000E3FE0A4B01221A700AB010BD920000206E
:10364000D8000020E9000020A3000020AE000020E8
:103650008B000020BC000020CA0000208E04002047
:10366000054B1A6B02431A631B6B82B01840019022
:10367000019B02B0704700BF00380240054B1A6C36
:1036800002431A641B6C82B018400190019B02B087
:10369000704700BF00380240054B5A6C02435A6421
:1036A0005B6C82B018400190019B02B0704700BF74
:1036B0000038024001290CBF00220622064B10B53B
:1036C000064C995CA45C183004220B58A24023EAF3
:1036D00002030B5010BD00BFF8990008FF990008C5
:1036E00030B54FF0007393FAA3F2B2FA82F20B4DA9
:1036F000D3404FF0F87155F8232091FAA1F4B4FAB1
:1037000084F40840E040072404FA00F022EA0000B4
:1037100091FAA1F145F8230030BD00BF0C20014013
:103720004FF4407393FAA3F34FF40072B3FA83F3A8
:103730000549DA4000F01F0051F8223023F01F0342
:10374000184341F8220070472C20014000F0070088
:10375000C0F10702031D042A28BF0422062B4FF0E4
:10376000FF3303FA02F38CBF0338002021EA030180
:1037700001FA00F070470000054B0144884200D177
:1037800070471A681206FCD510F8012B5A60F5E74D
:10379000001001409FED0C7ADFED0C7A0C4BDFED51
:1037A0000D5A93ED006AD3ED016A83ED000AE0EE55
:1037B000077AC3ED026AE6EE257A83ED016AB0EE80
:1037C000670AA6EE870A7047BD9BA2BD00000000F5
:1037D000F80400201159573F9FED0C7ADFED0C7A69
:1037E0000C4BDFED0D5A93ED006AD3ED016A83EDCA
:1037F000000AE0EE077AC3ED026AE6EE257A83ED71
:10380000016AB0EE670AA6EE870A7047F10707BEA5
:1038100000000000EC040020077C3C3F9FED0C7A88
:10382000DFED0C7A0C4BDFED0D5A93ED006AD3ED12
:10383000016A83ED000AE0EE077AC3ED026AE6EE64
:10384000257A83ED016AB0EE670AA6EE870A704713
:103850008F952DBE00000000E00400203835293F80
:1038600007B50121019001A8FFF786FF019803B079
:103870005DF804FBF8B562B67148724B02881B888C
:1038800092B29BB29A421FD1002303806E4B6F4AC3
:103890001B78DBB252F823206D4B1A606D4A127808
:1038A00093ED000AB8EEC00A032A00F2BD80DFE8FB
:1038B00012F0BB000400B8000600FFF78DFFBDEE5C
:1038C000C00A654B83ED000A644C654B22881B8857
:1038D00092B29BB29A4245D100232380614B5E4E47
:1038E0001F786149614D624A624B002F00F09F8052
:1038F000D1F800C0C5F800C0D2F800C0C1F800C0BF
:1039000019685D4F11603A681A6033683B605B4B21
:1039100032685B491A601A680968521A59490A6084
:10392000594A19681160594A12882D68196815FAA0
:1039300082F38B4216DA56490B7873B9554D2B78C2
:103940005BB9424A544B16681E6056685E609668C2
:103950009E60D268DA6001232B7001230B704F4BFD
:1039600000221A804E4A4F4B11881B8889B29BB2A5
:10397000994249D10023494913800B88444E9BB298
:10398000142B18D9337803F0FF07A3B9464B1B78E3
:10399000012B10D12D4D454BD5F800C0C3F800C008
:1039A000D5F804C0C3F804C0D5F808C0C3F808C0EF
:1039B000ED68DD600F800B8801339BB20B803C4BC0
:1039C0001B889BB23C2B13D13A4B3B491D680D60C1
:1039D0003A495D680D603A499D680D60D968394B78
:1039E00019601A4B38495D680D60D968374B19600A
:1039F000374B15491B780133DBB20B7033781BB999
:103A00001A4B19681E4B1960238801339BB223801F
:103A1000138801339BB21380038801339BB2038068
:103A2000F8BDFFF7FBFE4AE7FFF7B4FE47E70F6874
:103A30002F6017680F601968116032681A6066E7B6
:103A40004E0400201201002015010020E403002094
:103A50002C040020580400203004002048040020DA
:103A60008A040020170100203804002034040020BC
:103A70003C04002040040020440400209004002066
:103A80002804002054040020D8030020180100203E
:103A90008E040020940400209804002004040020D8
:103AA0004A0400208C040020FC00002008040020B0
:103AB0004A03002080030020A0030020A40300206C
:103AC000A8030020AC030020D0030020D403002072
:103AD0001401002070B5214B214E19883288214CE9
:103AE000214D92B289B2914282BF328892B21A803D
:103AF0001E4A1888118880B289B2884238BF11885E
:103B00001B483CBF89B219801B881A499BB2B5FB80
:103B1000F3F323602368C3F3CF030B801388164AA3
:103B20009BB2B5FBF3F323602368C3F3CF03138089
:103B3000118889B203F05CF93388104A10489BB2AF
:103B4000B5FBF3F525602368C3F3CF031380118819
:103B5000BDE8704089B203F04BB900BFFE00002001
:103B6000000100208404002080DE80020201002089
:103B700083950008820400207E0400208004002039
:103B80009995000870B51E491E4A0B699B0702D51E
:103B9000136C002B31D172B61B4E1A4C33684FF0A8
:103BA000804523F0010333602B6823F001032B6071
:103BB000236823F001032360642002F0C0F9134A54
:103BC000002373626B6263621370114A137062B6F2
:103BD000336843F0010333602B6843F001032B602B
:103BE000236843F0010323604FF4FA7002F0A7F951
:103BF000BDE87040074803F081B900BFC5E700BFCA
:103C00000004024000040040000001405A0400206B
:103C10007C040020AF95000808B5094B1880FFF719
:103C200059FF0849084A0B889BB2013BD3620B88B5
:103C3000C3F34E03013B5363BDE80840FFF7A2BF47
:103C4000FE00002082040020000001402DE9F04F1A
:103C500087B00023DFF85CA2DFF85C920293054690
:103C600003930C4604939046ADF806308DF805306A
:103C70009DF805307D4E012B07D135883488143DE1
:103C800014340023ADB2A4B20493294622467848E6
:103C9000DFF828B203F0ACF8764A631ED3626308FB
:103CA000013B53634FF4FA7002F049F9FFF7A4FBAC
:103CB0003480ADF80640BDF806309BB2AB4215D853
:103CC0009DF805300133DBB28DF805309DF80530E5
:103CD000012B40F0B680FFF78FFB6748FFF795FB9D
:103CE0004FF47A7002F02BF9C2E700BFDAF8103017
:103CF0009B0703D5DBF84030002BF6D15F4FFB6804
:103D00000393039B002BBEBF039B5B4203935C4B5F
:103D1000039A1A601B68029300210920FFF782FBB7
:103D20005848FFF772FB00210920FFF77BFB029A3E
:103D30005549564803F0EAF85448FFF766FB44F645
:103D400020630593029A049B9A420CD97B68002B4E
:103D500009DD7A68059B9A4205DABDF806309BB208
:103D60003380029B049302993288494892B203F04F
:103D70003FF800230293BDF806303E4A9BB2013B58
:103D8000D362BDF80630C3F34E03013B53633220C8
:103D900002F0D5F89DF80530012B03D14FF4967051
:103DA00002F0CDF8BDF806203A4B3B4F3B4892B2AB
:103DB00012011A601A68B9FBF2F292B23A8039889D
:103DC00089B203F015F800210846FFF72BFB3A886B
:103DD0002D492E4892B203F099F82C48FFF715FBB5
:103DE00000210620FFF71EFB2D48FFF70EFB32884F
:103DF000284B2C4892B212011A601B68B9FBF3F3EE
:103E00009BB23B80398889B202F0F2FF0121002089
:103E1000FFF708FB3A881C49234892B203F076F872
:103E20002148FFF7F2FA01210620FFF7FBFA1C48B0
:103E3000FFF7EBFABDF80630013B9BB2ADF8063058
:103E400039E7B8F1000F0AD0134B188880B2FFF79A
:103E5000E3FE164B1648198889B202F0C9FF0D4AD5
:103E600000233380136007B0BDE8F08F8804002082
:103E7000C5950008000001403F960008E4030020BB
:103E80007C030020DA940008B9940008AC040020F8
:103E9000EF95000884040020040100201996000812
:103EA000929600082C960008BD040020FE00002019
:103EB0004B9600080004024000BD010500040040CC
:103EC000044B1888044B1988012289B280B2FFF78D
:103ED000BDBE00BF800400207E04002010B52DED83
:103EE000028B86B000232D48009301930293039325
:103EF00003783BB32A492B4A0B6814681B1B07EE57
:103F0000903AF8EEE77ACDED007A4B6854681B1BC7
:103F100007EE903AF8EEE77ACDED017A8B68946877
:103F20001B1B07EE903AF8EEE77ACDED027ACB68EC
:103F3000D2689B1A07EE903AF8EEE77A0023CDEDAF
:103F4000037A03709DED000ADDED020A9FED168AEB
:103F500002F082F8DFED157AE0EE087ACDED047A12
:103F60009DED010ADDED030A02F076F820EE080A65
:103F70000F4B8DED050A9DED047ADDED056AD3ED5D
:103F8000007A0C4B37EE267AF6EE006AE7EE267AD8
:103F9000C3ED007A06B0BDEC028B10BD9404002086
:103FA0009804002008040020E12E654200003442FD
:103FB000F8000020A804002021EE011AF8B5A0EEB8
:103FC000001A2DED028B11EE100AB0EE618AF0EEB0
:103FD000608AFCF7C1FA41EC100B02F011F828EEF0
:103FE000088A57EC106BA8EEA88A18EE100AFCF7A6
:103FF000B3FA41EC100B02F003F83946304655ECA9
:10400000104BFCF7F9FD294608EE100A2046FCF794
:10401000F3FD07EE900A38EE278AF6EE007A28EED6
:10402000278ADFED097A9FED097A094B28EE278A66
:10403000DFED087AE8EE077ABDEC028BFDEEE77A59
:10404000C3ED007AF8BD00BF00A0484500008039EC
:10405000DC03002000A0C8C41A4B1B4A13B5196822
:1040600011605968516099689160D968D160174AA8
:1040700000241470164A19681160596851609968D3
:104080009160DB68D360FFF729FFFFF7B5F91148AE
:10409000FFF7BBF920460121FFF7C4F90E4B0F498A
:1040A000D3ED007AFDEEE77A684617EE902A02F02B
:1040B0002DFF6846FFF7A9F94FF4FA6001F03FFFC2
:1040C00002B010BDE403002008040020FD00002021
:1040D000980400205E960008A80400206D96000851
:1040E00010B485B000284CD0DFED3E7AB4EEE70A7C
:1040F000F1EE10FA56DCDFED3C7AB4EE670AF1EE31
:1041000010FA48BFB0EE670A3848DFED396A038815
:104110009BB207EE903AF8EE677A87EEA67A8DEDBD
:10412000027ADDED027A27EE800A8DED030ADDEDDD
:10413000037AFDEEE77A17EE903A1BB2ADF8043041
:104140000388BDF80440C3F34E031B1B9BB2ADF8BC
:104150000630BDF806400388A4B29BB29C4282BFE1
:1041600003889BB2ADF80630BDF806309BB213B998
:104170000123ADF80630BDF806301E489BB2013B66
:104180004363BAB11C481D4B0269920701D51A6CF2
:104190005AB972B6072922D8DFE801F009151719B4
:1041A0001B1D1F21B0EE670AAEE700BFECE700223F
:1041B0001A6462B6114B1A6C114B1A6005B05DF8A7
:1041C000044BFFF7DFBC0122F2E70222F0E70322F3
:1041D000EEE70422ECE70522EAE70622E8E70722F9
:1041E000E6E700BF0000B4410000B4C18204002033
:1041F000000034420000014000040240000400407E
:104200001C01002000282DE9F84F14BF4FF47A79E3
:104210004FF4FA69B2F5967F28BF4FF49672DFF833
:104220005080124C0D4617464FEA990A00264FF06F
:10423000010BAE4201D1BDE8F88F88F800B0C4F898
:104240002C90C4F840A0236A43F48053236238467C
:1042500001F075FE236A23F4805323626420002357
:1042600088F80030013601F06AFEE2E7000C0040F9
:10427000E003002010B540F2CF720D4C40F2E7335E
:10428000022808BF1346E3629B082364236AB1F542
:10429000FA7F43F4805328BF4FF4FA712362084633
:1042A00001F04DFE236A23F48053236210BD00BF4A
:1042B000000C004038B5FCF7E9FE08B3754C2388C4
:1042C0009BB2092B23888CBF053301339BB264203A
:1042D000238001F034FE23889BB2B3F5FA7F84BFBC
:1042E00000232380FEF72AF923889BB20A2B02D8E9
:1042F000C82001F024FE012164220846FFF782FF56
:10430000FCF79CFE18B3634C23889BB20A2B2388CE
:104310008CBF053B03F1FF339BB26420238001F087
:104320000EFE23889BB2B3F5FA7F84BF4FF4FA7375
:104330002380FEF703F923889BB20A2B02D8C820FA
:1043400001F0FDFD642201210020FFF75BFFFCF777
:10435000C5FE10B3504C2378013303F003032370E0
:10436000FFF74AF84D48FFF750F801210020FFF70A
:1043700059F82378002B65D14948FFF746F8217892
:10438000484802F035FD012108464FF49672FFF7C8
:1043900039FF4FF4FA7001F0D2FDFCF727FE10B39D
:1043A000414A424D1378C3F10103DBB21370137815
:1043B00003F0FF04002B54D1FFF71EF83C48FFF731
:1043C00024F801212046FFF72DF83A48FFF71DF8A1
:1043D0002C704FF4967201210020FFF713FF4FF469
:1043E0007A7001F0ACFDFCF7D9FD50B3324C237864
:1043F000C3F10103DBB22370FEF7FEFF2F48FFF786
:1044000004F801210020FFF70DF82378002B3AD0A3
:104410002B48FEF7FAFF012164220846FFF7F2FE5F
:104420004FF4967202210120FFF7ECFE40F2DC50BF
:1044300001F085FD23780BB9FFF70EFE214B012219
:104440001A7038BD2378012B01D11F4895E72378D6
:10445000022B01D11D4890E72378032B8FD11C48F4
:104460008BE7FEF7C9FF1B48FEF7CFFF01210020B5
:10447000FEF7D8FF1848FEF7C8FF01232B704FF452
:1044800096720221A8E71548FEF7BFFF4FF4967217
:104490000321C8E718010020580400207596000881
:1044A000839600089F960008160100201401002042
:1044B000B9960008C3960008FC000020EF9600089B
:1044C000009700088E040020899600088F96000847
:1044D00095960008D4960008DE9600080497000818
:1044E00010B501460446124802F082FC114B042C20
:1044F0001CD8DFE804F003151B1719000E4A1288B8
:104500000E4892B21A800E4B4FF47A721A801988B4
:104510000C4B1A88BDE8104092B289B202F068BC18
:10452000094AECE7094AEAE7094AE8E7094AE6E7FF
:10453000089700088A040020200100201B9700082B
:104540001201002006010020220100202601002087
:104550002A0100202401002030B587B03A4B3B48A7
:104560003B4D00220192029303923A4A0492059332
:10457000FFF7D6F83548FFF7B3F8642001F0DFFC09
:104580000424D5ED007A9DED037AF8EE677A3220A7
:1045900077EE877A013CCDED037A01F0D0FC14F080
:1045A000FF04EED1DDED037A2B48B5EE007A67EE1D
:1045B000877ACDED037ADDED037A9DED027A67EE21
:1045C000877A9FED267A67EE877ACDED017ADDED69
:1045D000047A9DED056A9DED017ADDED056A77EEC1
:1045E000867A67EE877A87EEA67A8DED017AFFF7F5
:1045F00097F81948FFF774F8642001F0A0FC0198BF
:10460000FBF7AAFF02460B46154802F0F1FBFEF746
:10461000F3FE1448FEF7F9FE20460121FEF702FFE3
:104620000198FBF799FF02460B460F480F4902F02D
:104630006DFC0D48FEF7E9FE40F6B83007B0BDE866
:10464000304001F07CBC00BF3333534002006002B5
:10465000780300200000B0410600200300008039EC
:104660003797000846970008BD04002056970008B9
:1046700038B500F0DBFF102001F077F81F4D204C1B
:104680002880014620801F4802F0B2FB2B88A3F54A
:10469000AF639BB2B3F53E7F05D94FF407611A486B
:1046A000218002F0A5FB2088184CFCF745FF84ED23
:1046B000000AFCF7FFFD164B94ED000A1878FCF792
:1046C000C5FEFEF799FE1348FEF79FFE012100206C
:1046D000FEF7A8FE2068FBF73FFF0B4602460E4997
:1046E0000E4802F013FC0D48FEF78FFEFCF7A2FF08
:1046F000BDE838404FF4FA6001F021BC0A01002007
:10470000080100205C9700087A9700080C0100203F
:1047100050040020A3970008B4970008BD040020AF
:104720002A4A136823F0070343F0020310B513600D
:10473000136803F00703022BFAD1254A136823F408
:10474000404343F400431360224B1A6842F4803222
:104750001A601A689103FCD55A681F4911401F4A14
:104760000A435A605A6822F440325A601A6842F08A
:1047700080721A60174B1A689201FCD59A68154C22
:1047800022F0F0029A609A6822F4E05242F48052D9
:104790009A609A6822F460429A609A6822F0030252
:1047A00042F002029A60A36803F00C03082BFAD1CE
:1047B0000B4801F0B7FB0A4801F0D6FBD4F88C3067
:1047C00023F08073C4F88C3010BD00BF003C024061
:1047D00000700040003802400080BFFF192A4000EE
:1047E00000BD01052DE9F04F4FF480409DB0D34D41
:1047F000D34EDFF87483FEF74FFF4FF08050FEF783
:104800003DFFEA68CF4B22F4E0621204120C13431E
:10481000EB60E8680F21C0F30220FEF797FF00016C
:10482000C0B285F82300E8680021C0F30220FEF73B
:104830008DFF00014FF0020BC0B286F80103C6F8ED
:1048400000B0FFF76DFFD5F8883043F47003C5F86A
:1048500088301822002114A801F058FE0420FEF729
:10486000FFFE8020FEF7FCFE0120FEF7F9FE584611
:10487000FEF7F6FEB448B54A4FF060438361B44B8F
:104880009A61B44AC3F8182400244FF001094FF488
:10489000604214A9CDE91429CDE91644189401F019
:1048A00097F8AB4B1894184648F2320214A9CDE998
:1048B0001429CDE9164401F08BF84FF20C0214A92B
:1048C000A5481894CDE91429CDE9164401F080F8E3
:1048D0004FF47C7214A9A048CDF86090CDE914245F
:1048E00001F076F84FF48000FEF7BAFEE868214642
:1048F000C0F30220FEF72AFF0001C0B24FF0807221
:1049000086F838032146726003A8142201F0FEFDE8
:104910002146202214A801F0F9FD2146182208A8FA
:1049200001F0F4FD182221460EA801F0EFFD4846E3
:10493000FEF7B2FE03A940F2E7334046CDE9053465
:10494000ADF80C400494079401F04CF9D8F800201D
:1049500042F08002C8F80020D8F8082022F48042F3
:1049600022F00702C8F80820302340F2F31714AAF7
:1049700049464046CDE91434CDE91774CDE91944D0
:1049800016941B9401F07AF949464046FEF792FED0
:10499000D8F8042022F0700242F02002C8F8042067
:1049A000D8F8082022F08002C8F80820D8F818208B
:1049B00042F00802C8F8182008A94FF400524046F7
:1049C000CDE90C24CDE908440A948DF82C40ADF8CB
:1049D0002E4001F01BFA4846FEF742FE5C4B4FF4B6
:1049E000807A18460EA9CDE91249CDE90EABCDE982
:1049F000104400F0EDFF214614220EA801F086FDC0
:104A00002022214614A801F081FD4846FEF736FE1B
:104A1000E868524D0721C0F30220FEF797FE00011F
:104A2000C0B24FF0805386F81C030EAA3360CDE964
:104A30000F474FF080474FF0530311464FF080402F
:104A4000ADF83830119401F0CDF83A68444E42F098
:104A500080023A60BA6822F4804222F00702BA600B
:104A60007C223023CDE91724494614AA3846CDE9E3
:104A70001434169401F002F949463846FEF71AFE3E
:104A80007A6822F0700242F020027A60BA6822F05E
:104A90008002BA60BA6942F008022146BA6108A8E9
:104AA000142201F033FD2146202214A801F02EFD2E
:104AB000182221460EA801F029FD5846FEF7DEFD1A
:104AC00008AA072311463046CDE90A34ADF8204044
:104AD000099401F087F83268302322F080023260B6
:104AE0004FF48051CDE9143414AA07233046CDE9A0
:104AF0001734169401F0C2F84FF480513046FEF797
:104B0000D9FDB268174922F07002B260B26822F48F
:104B1000804222F0070242F00702B260F26822F0FF
:104B20004002F260F26822F48042F260726822F081
:104B3000700242F020027260B26817E000ED00E0FF
:104B400000E100E00003FA050008024000003280A6
:104B50000000024000000CF000040240006402402B
:104B600000040040180400400000014022F08002D0
:104B7000B2604A6842F400624A605846FEF770FD2F
:104B80000EAA1146CA48CDE910B4CDE9124BCDE9C1
:104B90000EBB00F01DFF214614220EA8CDE90844EB
:104BA0000A9401F0B3FC1822214614A8039401F0E2
:104BB000ADFC5046FEF770FD4846FEF751FD4FF044
:104BC000030ABC4B18944422CDE9142A14AA1146B6
:104BD000184600F0FDFE2A69B74822F060622A619B
:104BE0002A6922F0C0022A612A6922F4403242F482
:104BF00000322A612A6922F4907242F480722A619A
:104C00002A6922F400722A612A6942F480622A61C8
:104C10002A6922F4C05242F400622A612A6922F40D
:104C2000C04242F400522A616A6A22F004026A62B7
:104C300008AA1146CDE908440A9400F087FE4FF413
:104C4000407212920EAA4FF0805311469A48CDE955
:104C50000E34CDE9104400F093FE974B97489A68C4
:104C60004FF4803142F480629A60039103A900F00E
:104C70005BFE914B92489A6842F080529A60FEF730
:104C80004FFD8F48FEF72CFD21461C2214A801F091
:104C90003DFC182221460EA801F038FC1020FEF73A
:104CA000FBFC4846FEF7DCFC824B129407211846B9
:104CB000CDE910A44FF4C062DFF82CA213910EA925
:104CC000CDE90E2B00F084FE4FF4E132CDE914243F
:104CD00014A90C225046CDE91824CDE916441A94A3
:104CE00001F0AEF8DAF8102022F49042CAF8102051
:104CF000DAF8142022F02A02CAF81420DAF80C207C
:104D000042F40052CAF80C202146142208A801F0EF
:104D1000FDFB2146202214A801F0F8FB18222146B1
:104D20000EA801F0F3FB08204FF05301AAF5823AD8
:104D3000FEF7A4FCADF8201040F2E731CDE90A14EB
:104D4000504608A9099400F04DFFDAF8002042F01F
:104D50008002CAF80020DAF8082022F4804222F00B
:104D600007023021CAF80820CDE91414F92214A949
:104D7000CDE9172450460A464FF48051169400F0AE
:104D80007DFF4FF480515046FEF794FCDAF8042082
:104D90004C4922F0700242F02002CAF80420DAF8EE
:104DA000082022F08002CAF808204A6842F4006213
:104DB0004A604846FEF754FC3E4B08220EA91846AE
:104DC000CDE90E2BCDE91044CDE9124B00F000FEE9
:104DD0003D4B3E4C1A6842F0A0021A601A6842F03D
:104DE00010021A6003F54C434FF480311A6842F404
:104DF00080321A609A6842F480329A605961FEF7F4
:104E000049FB2B692C4A23F45F3323F4787343F472
:104E10000B3343F480732B612D4BAB612D4BEB6156
:104E20006B691B0C1B0443EA09036B612B6943F09C
:104E300010032B612B6943EA09032B619368264D0C
:104E400043EA09039360642001F079F8FEF742FE1B
:104E5000224A234813889BB2013BC8F82C301388A0
:104E6000C3F34E03013BC8F83430D8F8443043F460
:104E70000043C8F84430D8F8203043EA0903C8F8A2
:104E80002030DFF868900723F362D9F800303364EC
:104E9000D8F82C302360216801F0AAFFD8F834300C
:104EA000236021680F4801F0A3FFF36A20E000BFF0
:104EB00000040240000002400020014000230140A5
:104EC00006002003180C004000700040D0040020B1
:104ED0004C20014078030020FE00002082040020C6
:104EE000BE970008D2970008001001401C01002066
:104EF00023602168B34801F07BFF336C2360216895
:104F0000B14801F075FF736CB04AB14843F40043F7
:104F10007364336A43F4805333620923FB620523CD
:104F20007B633B69DB0744BF6FF001033B613B6977
:104F300003F001032360BB6A1360A64BF96A196092
:104F4000796B0160216812681B6800680090A248B4
:104F500001F04EFFFB68A14A43F00103FB601368B8
:104F600043F0010313603B68A2F57C4243F0010368
:104F70003B60136843F001031360D2F8003843F03C
:104F80000103C2F80038964B02229A614FF47A70FE
:104F900000F0D5FF00F04AFB202000F0E6FBADF862
:104FA0000C00BDF80C108F4889B201F021FF8E4B28
:104FB0001A88BDF80C3092B29BB29A4210D88B4B33
:104FC0001A88BDF80C3092B29BB29A4208D3BDF851
:104FD0000C3087489BB22B80298889B201F008FFEA
:104FE00000F024FB302000F0C0FBADF82000BDF83D
:104FF00020308048804E9BB2072B84BF0723ADF83A
:105000002030BDF820309BB2C9F800307B4BD9F876
:1050100000201A64D9F8001001F0EAFE00F006FB47
:10502000402000F0A2FBADF83800BDF838307448DD
:105030009BB2042B84BF0223ADF83830BDF8383062
:10504000DBB23370317801F0D3FE288880B2FEF7EE
:10505000E3FD6C4801F052FF6B4B1B789BB10121C3
:1050600008464FF49672FFF7CDF8684B1888684BE6
:105070001988012289B280B2FEF7E8FD642203217B
:105080000120FFF7BFF8FEF75BFA00F0CFFAB0207F
:1050900000F06BFB5F4B00F001041C80002C00F063
:1050A0006E815D4A042393614FF4FA7000F047FF6C
:1050B000FFF7DEFAFEF7A0F95848FEF7A6F901213E
:1050C0000020FEF7AFF92A885549564892B201F000
:1050D0001DFF5448FEF799F94FF4FA6000F02FFFD6
:1050E000FFF73AFA00F0A2FA502000F03EFB4E4BD8
:1050F00018801A8892B22AB11A884FF6FF7192B2BC
:105100008A4201D132221A8000F090FA602000F029
:105110002CFB464B464DC0B218701A7802F00102C3
:105120001A7000F083FA802000F01FFB414BC0B2E0
:1051300018701A7802F001021A7000F077FA9020C5
:1051400000F013FBC0B228702B7803F001032B7022
:105150003078394EFFF7C4F9384B394A1B889BB277
:105160001380FEF749F93748FEF74FF90121002077
:10517000FEF758F910243046FEF747F9013C32207B
:1051800000F0DDFE14F0FF04F5D1DFF8C890DFF881
:10519000C88099F800302C4F002B5FD03B78012B52
:1051A0005CD1FEF729F92949294801F0CFFE2848AA
:1051B000FEF72BF940F2DC5000F0C1FEFEF74CFF89
:1051C0004CE000BFE7970008FB970008D4040020DC
:1051D000DC040020D80400201098000800000140E2
:1051E000000002405F98000802010020000100203A
:1051F00078980008969800081A01002000040040E2
:10520000BE980008E4980008E10300208004002014
:105210007E04002010010020000402400A990008CA
:1052200017990008BD040020180100201701002074
:105230004C040020140100203595000828010020AE
:105240008C0400201E9900088A00002034010020F0
:10525000AC040020FD0000208E040020FEF74EF874
:105260003B78012B01D1FFF725F898F80030002B8F
:105270008FD04D4C4D4EFEF731FED4ED007A012219
:10528000002388F8003032702A78F5EEC07AF1EE0B
:1052900010FAACBF01200220012A0AD1444A94ED41
:1052A000007AD2ED007AB4EEE77AF1EE10FA48BF58
:1052B0003370DFF838A1DAF800301493149B002B18
:1052C000BEBF149BDB431493149BB3F5C87FC4BFCC
:1052D0004FF4C873149314993378012B03D18910B8
:1052E0006431FEF7C7FF002333703B78012B0AD1EE
:1052F000D4ED007ADAF80010FDEEE77A17EE903A76
:1053000018B2FCF7EBFF2B4B1B78012B7FF441AF5E
:10531000D4ED007A2848294F294EDFF8D4B0FDEEAD
:10532000E77A002417EE901A01F062FD254B26481B
:1053300019683A6801F05CFD244BDAF80010244843
:105340001A68DFF8B0A001F053FD3378A342FCD116
:10535000317833781F48DBB201345BF8232033788F
:10536000DBB2E4B25AF8233001F042FD042CECD158
:10537000194B1A4819683A6801F03AFD09E7184ACA
:105380004FF480239361FEF737F81648FEF73DF897
:1053900001212046FEF746F81348FEF736F84FF491
:1053A000FA6000F0CCFD85E6A8040020E0030020B0
:1053B000300100202C0100202F990008300400202B
:1053C0005A040020900400203A990008D8030020D5
:1053D00063990008829900082C040020C1990008F4
:1053E00000040240179500080497000854040020A8
:1053F000E40300208003002030B5284A28481378B1
:10540000032B284B3FD80568117801F0030153F8AE
:1054100021402C4443F82140117804682248C9B245
:1054200040F8214011780131C9B211701178072973
:105430001E4905D9002010700A780132D2B20A70D4
:105440000A781F2A1ED900220A70194918680860B4
:105450005868486098688860D868C86012481549DC
:1054600004680C6044684C6084688C60C068C860E4
:105470001A605A609A60DA600F4B01221A700F4B63
:1054800007225A6230BD0468117801F0030153F815
:105490002100001B43F82100C4E700BF5A0400208C
:1054A000780300205C040020B00300207C0400206E
:1054B000E403002080030020590400200004004081
:1054C00008B5084801F01AFDBFF34F8F0649074B96
:1054D000CA6802F4E0621343CB60BFF34F8F00BF92
:1054E000FDE700BFE499000800ED00E00400FA05C4
:1054F00082B0084B0190019A1B680749B3FBF1F396
:1055000053430193019B5A1E0192002BFAD102B022
:10551000704700BF44010020404B4C007FB514226F
:10552000002101A800F0F2FF4FF400436946034850
:10553000009300F04DFA07B05DF804FB000802404C
:1055400010B50A4C86B01022002102A800F0DEFF40
:105550004FF40042012369462046CDE9002300F0C4
:1055600037FA4FF00043A36106B010BD00080240B7
:105570007FB51422002101A800F0C8FF4FF480433A
:1055800069460348009300F023FA07B05DF804FB76
:105590000008024010B50A4C86B01022002102A873
:1055A00000F0B4FF4FF48042012369462046CDE964
:1055B000002300F00DFA4FF08043A36106B010BD48
:1055C0000008024008B5FFF7BBFF0A20FFF790FF75
:1055D000FFF7E0FF0A20FFF78BFFFFF79FFF0A208E
:1055E000FFF786FFFFF7C4FF0A20FFF781FF0E4B8E
:1055F00000221A7002F1804202F50232106911692C
:1056000002045EBF1A780132D2B201F4804158BF61
:105610001A7019B91A780132D2B21A70BDE808406E
:105620002820FFF765BF00BF0405002008B5FFF77D
:10563000C9FFBDE80840FFF7C5BF08B5FFF798FFF1
:105640000A20FFF755FFFFF769FF0A20FFF750FF19
:10565000FFF7A0FF0A20FFF74BFFFFF771FFBDE840
:1056600008400A20FFF744BF38B504460825230642
:1056700024D5FFF77DFF0A20FFF73AFF013DFFF732
:105680004DFF0A20FFF734FF6400FFF759FF15F0C4
:10569000FF05E4B2EBD1FFF76BFF0A20FFF728FF0D
:1056A000FFF73CFF0A20FFF723FF064B1C69FFF7BB
:1056B00047FF84F48040C0F3803038BDFFF76AFFB5
:1056C000D9E700BF00080240F8B50646FFF750FFD3
:1056D000184F08250024FFF721FF0A20FFF708FFD5
:1056E000FFF746FF3B6964005B04E4B248BF44F047
:1056F0000104013DFFF724FF0A20FFF7F9FE15F032
:10570000FF05E8D196B9FFF745FF0A20FFF7F0FE45
:10571000FFF704FF0A20FFF7EBFEFFF711FF0A2057
:10572000FFF7E6FEFFF724FF2046F8BDFFF720FF56
:10573000EBE700BF0008024070B5C60906F00E0690
:105740000C460546FFF779FF46F0A000FFF78CFFF7
:10575000E8B2FFF789FF200AFFF786FFE0B2FFF704
:1057600083FFBDE87040FFF72DBF38B5C40904F0D2
:10577000FE0404F00E040546FFF75FFF44F0A000AE
:10578000FFF772FFE8B2FFF76FFFFFF756FFA120A8
:10579000FFF76AFF0020FFF797FF05460120FFF79C
:1057A00093FF0446FFF70EFF04EB052080B238BDDF
:1057B000FEE7FEE7FEE7FEE7FEE77047704770474B
:1057C00070470000054B5A69D20305D55A6942F467
:1057D00080325A61FFF774BE704700BF003C014041
:1057E0004FF080431A69D20744BF6FF001021A617B
:1057F000FEF740B8054B1A68920605D59A6842F044
:1058000020029A60FFF7F8BD704700BF00640240B5
:105810000120704708B500F04FFE162303604FF0DB
:10582000FF3008BD08B500F047FE16230360FEE711
:1058300070B50D4614460E46731B9C4201DC204693
:1058400070BDAFF3008006F8010BF5E770B50D46AB
:1058500014460E46731B9C4201DC204670BD16F8B0
:10586000010BFDF7FDFFF5E74FF0FF3070474FF4F8
:1058700000534B60002070470120704700207047A4
:105880000B4A116810B5034609B90A49116010683E
:1058900009490A4C0344091B8B4206D900F00CFE4F
:1058A0000C2303604FF0FF3010BD1360FCE700BF16
:1058B0000805002020050020000001200004000051
:1058C000034AD2F8883043F47003C2F88830704736
:1058D00000ED00E0DFF834D00D480E490E4A0023F9
:1058E00002E0D458C4500433C4188C42F9D30B4A94
:1058F0000B4C002301E013600432A242FBD3FFF7FC
:10590000DFFF00F0DFFDFEF76DFF704700000120B4
:105910000000002018030020449E00081803002007
:105920001C050020FEE70000074B9B6813F00103F5
:1059300001BF4268096822F440320A4306BF426050
:1059400018460120704700BF00200140836813F013
:10595000010330B511D144680A688D68496824F0A4
:1059600040742A4324F4807422434260826822F403
:1059700000620A438260184630BD0120FCE7000047
:105980008368DB0710B51FD44C68C4B142688B68CC
:1059900022F468421A43426082680C4B1340CA6882
:1059A00013430A6913430A6802F070621343836069
:1059B000C36A23F470032343C362002010BD43680D
:1059C00023F468434360E7E70120F7E7FDFCFFC0ED
:1059D0002DE9F04702460D6895FAA5F44FF0010E47
:1059E000B4FA84F403264FF00F0C35FA04F001D119
:1059F000BDE8F0870EFA04F32B406DD04868471ECF
:105A0000012F1ED8D2F8088093FAA3F7B7FA87F7C8
:105A100093FAA3F97F0006FA07F728EA0708B9FA0C
:105A200089F98F684FEA490907FA09F748EA070731
:105A30009760576827EA0308CF685F4348EA07077B
:105A40005760D2F80C8093FAA3F7B7FA87F793FA66
:105A5000A3F97F0006FA07F728EA0708B9FA89F9D7
:105A60000F694FEA490907FA09F748EA07070228C8
:105A7000D7601DD193FAA3F7B7FA87F7072FD1F8AC
:105A800014902BDCD2F820A093FAA3F8B8FA88F887
:105A900093FAA3F7B7FA87F74FEA88080CFA08F8E1
:105AA000BF002AEA080809FA07F748EA0707176259
:105AB000D2F8008093FAA3F7B7FA87F793FAA3F323
:105AC000B3FA83F37F0006FA07F75B0028EA0707BB
:105AD00000FA03F33B431360013486E7D2F824A0B5
